:100000000000042085030000B1030000B1030000DC
:10001000B1030000B1030000B1030000B103000010
:10002000B1030000B1030000B1030000B103000000
:10003000B1030000B0030000E7D4000001F70000A6
:10004000B1030000B1030000B1030000B1030000E0
:10005000B1030000B1030000B1030000B1030000D0
:10006000B1030000B103000039F60000B103000045
:10007000B1030000B1030000B1030000B1030000B0
:10008000B1030000B10300009DF60000B1030000C1
:10009000B1030000B1030000B1030000B103000090
:1000A000B1030000B1030000B1030000B103000080
:1000B000B1030000B1030000EDE20000B103000055
:1000C000B1030000B1030000B1030000B103000060
:1000D000B1030000B1030000B1030000B103000050
:1000E000B1030000B1030000B1030000B103000040
:1000F000B1030000B1030000B1030000B103000030
:10010000B1030000B1030000B103000010B5054CBD
:10011000237833B9044B13B10448AFF300800123B3
:10012000237010BD3801002000000000A864010009
:1001300008B5034B1BB103490348AFF3008008BD6A
:10014000000000003C010020A8640100154B002BBA
:1001500008BF134B9D46A3F5803A00218B460F46FE
:100160001348144A121A11F0F2FB0F4B002B00D067
:1001700098470E4B002B00D0984700200021040028
:100180000D000D48002802D00C48AFF3008011F09C
:10019000AFFB200029000EF065FD11F095FB00BFBC
:1001A0000000080000000420000000000000000023
:1001B0003801002090BE0020000000000000000078
:1001C00080B582B000AF00F0F5F878600A4B1B688C
:1001D000094A43F080731360084B00221A60084BF1
:1001E0001B68074A43F001031360786804F0AAFF14
:1001F00000BF0837BD4680BDFCED00E0041000E004
:10020000001000E080B483B000AF054B1B687B603A
:100210007B6818460C37BD465DF8047B704700BF0D
:10022000041000E0B0B586B000AF786000F0C2F80E
:1002300003464FF00004C7E904347B681C464FF0C6
:100240000005D7E904010B4A4FF0000311F0BCF997
:1002500002460B462046294611F0B6F903460C46E5
:10026000C7E90234D7E90234184621461837BD469B
:10027000B0BD00BF40420F0080B400AF044BDB6C48
:100280001B0EDBB21846BD465DF8047B704700BF0D
:10029000B081E00F80B582B000AF194B01225A64E3
:1002A000FFF7EAFF0346FB71FB79002B0CD1154BDE
:1002B0004AF6E8521A60144B1B68134A43F00403D1
:1002C0001360104B00221A60FB79012B05D80F4BED
:1002D0001B680E4A43F4005313600D4B1B6A23F452
:1002E00044130B4A43F4881313620A4B1B68094AF0
:1002F00043F4F843136000BF0837BD4680BD00BF1C
:1003000000000E4090310E4098310E4064310E4096
:1003100000400E40A4310E4080B584B000AF1123E0
:10032000FB60FFF7B7FF104807F08AF80521F8686F
:1003300006F048F801210D4805F05EFB0123FB7231
:100340000323BB720A4B7B60BB7A1946786806F0C0
:1003500039F8FB7A00220121184606F0E3F900BFC4
:100360001037BD4680BD00BF1C22010030253E0075
:100370000500240080B400AF00BFBD465DF8047BDB
:1003800070470000064880470649074A074B9A42D3
:10039000BEBF51F8040B42F8040BF8E7FFF7D6FE96
:1003A000A9040000B464010000000020380100200E
:1003B000FEE700BF80B582B000AF00F025F878609E
:1003C0000A4BD3F808311B0AC3F308033B603B68B0
:1003D00001337A68B2FBF3F37B60054A7B681360F4
:1003E0007B6818460837BD4680BD00BF00400E4000
:1003F0000800002080B400AF024B1846BD465DF8EF
:10040000047B7047005A620280B483B000AF1C4B7B
:10041000D3F8943003F00703023B032B1BD801A24F
:1004200052F823F0450400003D04000035040000AC
:100430004D040000134B1B687B6010E04FF4004339
:100440007B600CE0104B1B687B6008E00F4B1B6867
:100450005B087B6003E00D4B1B687B6000BF084BB3
:10046000D3F800311B0A03F01F0301337A68B2FB93
:10047000F3F318460C37BD465DF8047B704700BFA8
:1004800000400E4004000020000000200C0000206E
:1004900080B400AF034B1B681846BD465DF8047B73
:1004A000704700BF0000002080B400AF074B084A2F
:1004B0009A60064BD3F88830044A43F47003C2F8BC
:1004C000883000BFBD465DF8047B704700ED00E05A
:1004D0000000000080B400AF4FF400431846BD4652
:1004E0005DF8047B704780B400AF4FF47A73184610
:1004F000BD465DF8047B704780B400AF034B1B68BA
:100500001846BD465DF8047B704700BF040000201C
:1005100080B483B000AF0346FB7197F90730002B1E
:100520000BDBFB7903F01F02074997F907305B09E2
:10053000012000FA02F241F8232000BF0C37BD462B
:100540005DF8047B704700BF00E100E080B485B037
:1005500000AF0346FB71FB790D4A52F82330FB6074
:10056000FB790B4A52F823309B08FA68D31AFB60D8
:10057000FB79084A52F82330FA689A4201D90123DC
:1005800000E0002318461437BD465DF8047B704731
:10059000680100205801002080B58AB000AF0346F2
:1005A000FB71FB7919464FF0804004F093FE184B25
:1005B00000225A62164B01225A6007F10C031A46B8
:1005C00000210A200CF0B8F9114B02225A60104B9E
:1005D0005B6A7B620F4B1B78DBB219460E4A7B6A63
:1005E00042F821300B4B1B78DBB21A460B4B53F809
:1005F00022307A6A9A4207D9064B1B78DBB2194639
:10060000064A7B6A42F8213000BF2837BD4680BDCC
:10061000008401405401002058010020680100209E
:1006200080B500AF4FF0804004F096FE0F4B0022E3
:100630001A700FE00D4B1B78DBB21A460C4B9B5C1B
:100640001846FFF7A9FF094B1B78DBB20133DAB27A
:10065000064B1A70054B1B78DBB2032BEAD94FF01F
:10066000804004F059FE00BF80BD00BF540100204F
:100670002C220100B0B586B000AF1C4B3C461D4695
:100680000FCD0FC495E8030084E80300012118484A
:1006900005F0B2F90121174805F0AEF9012116481D
:1006A00005F0AAF90121154805F0A6F901214FF43A
:1006B0008A4005F0A1F9124B124A1A60104B4FF60E
:1006C000FF72DA610E4B104A1A67104B104A1A6516
:1006D0003B4619464FF0804004F09EFD0B20FFF78B
:1006E00017FF00BF1837BD46B0BD00BF3022010064
:1006F00040410500000204000012040000A20400B2
:10070000008401400000010A0100002A00600E4040
:100710000003100080B582B000AF114B7B60114B1D
:100720001B7883F00103DBB2002B13D00D4B0122A9
:100730001A700BE07B681B68984738603B68002B99
:1007400001D03B6807E07B6804337B607B681B68F3
:10075000002BEFD1002318460837BD4680BD00BFEF
:1007600010000020A401002080B584B000AF7860A4
:100770003960114B1B7883F00103DBB2002B02D0F0
:100780000E4BFB6012E07B68002B0DDC7B682C229B
:1007900002FB03F30A4A13442C221946386811F06D
:1007A000CBF80023FB6001E0064BFB60FB681846BA
:1007B0001037BD4680BD00BFA40100200500118098
:1007C000780100200200118080B584B000AF78600D
:1007D000134B1B7883F00103DBB2002B02D0114BCB
:1007E000FB6017E0104B1B68002B11DC0E4B1B68E5
:1007F0005A1C0D490A602C2202FB03F30B4A1344D6
:100800002C227968184611F097F80023FB6001E06C
:10081000074BFB60FB6818461037BD4680BD00BF24
:10082000A401002005001180A8010020780100200B
:100830000100118080B58CB000AF00F00FFB00F01C
:10084000A1FA00F025FB002300220821022000F07D
:100850002FFB002300220621022000F029FB0023A9
:1008600000220E21032000F023FB002300220F2191
:10087000032000F01DFB002300220D21032000F0C7
:1008800017FB80220D21032000F056FBF862FB6A63
:10089000002B01D0FB6A27E0154B3B6001233B7422
:1008A00000237B7480237B608023FB607B68BB60BC
:1008B000104B7B61104BBB61104BFB61104B3B62DB
:1008C000104B7B62104BBB623B461846FFF77CFF28
:1008D000F862FB6A002B06D13B460121184600F066
:1008E00024F800F039F8FB6A18463037BD4680BD61
:1008F000482201002B090000A10900001D0A000088
:100900008D0A0000390A00000D09000080B584B08E
:1009100000AF78600023FB6000F0A0FA00F032FA2C
:10092000FB6818461037BD4680BD80B582B000AF69
:1009300078600B46FB70FB78002B04D00F2103205E
:1009400000F0D6FA03E00F21032000F0E3FA0023C1
:1009500018460837BD4680BD80B582B000AF0E2175
:10096000032000F0C5FA062000F084FA0B4B1B7838
:1009700043F00403DBB29BB2FB80BB1D022118468F
:1009800000F032FA022000F075FA0E21032000F088
:10099000C1FA002318460837BD4680BDAC010020CF
:1009A00080B487B000AFF860B9607A603B60BB6824
:1009B000DA087B6802FB03F37B61BB68802B01D004
:1009C000124B1CE0124B1A687B691344114A934284
:1009D00004D93B6800221A600F4B10E00C4B1A68D8
:1009E0003B681A600A4B1A687B6959087B6903F0F7
:1009F00001030B445B001344054A136000231846AF
:100A00001C37BD465DF8047B704700BF02001180B3
:100A100018000020F00A00200100118080B483B08B
:100A200000AF78603960034B18460C37BD465DF85F
:100A3000047B70470400118080B588B000AFF86077
:100A4000B9607A603B60BB68FB61FB681B7C012B73
:100A500002D10023FB7601E0FF23FB7600237B61BC
:100A60000BE0FB7E10221946F86910F070FFFB695D
:100A70001033FB617B6901337B617A693B689A4281
:100A8000EFD3002318462037BD4680BD80B588B01F
:100A900000AFF860B9607A603B60BB68BB61BB6A5D
:100AA0000133BB620E21032000F022FA062000F081
:100AB000E1F9BB6A9BB21B029BB243F001039BB2FC
:100AC000FB8207F116030221184600F08DF900237E
:100AD000FB6126E01021B86900F086F9BB6910338C
:100AE000BB61FB6A013BFA699A4203D14FF6FF737F
:100AF000FB820DE0BB6A9AB2FB699BB213449BB2C6
:100B000001339BB21B029BB243F0FF039BB2FB82FB
:100B100007F116030221184600F066F9FB6901335C
:100B2000FB61FA69FB6A9A42D4D3022000F0A2F971
:100B30000E21032000F0EEF9002318462037BD46B1
:100B400080BD80B485B000AF786039607B6803F108
:100B5000C063FB60FB683A681A6000BF1437BD468B
:100B60005DF8047B704780B485B000AF7860396071
:100B70007B6803F18063FB60FB683A681A6000BF22
:100B80001437BD465DF8047B7047000080B582B025
:100B900000AF03463960FB71FB79002B38D0FB793D
:100BA000012B32D0FB79022B2CD0FB79032B26D0E2
:100BB000FB79042B21D0FB79052B1BD0FB79062B6D
:100BC00016D0FB79072B11D0FB79082B0CD0FB79C1
:100BD000092B06D0FB790A2B01D107231AE0002349
:100BE00018E04FF4404315E00F2313E0002311E019
:100BF00000230FE04FF6FF730CE000230AE04FF4F0
:100C00007F4307E040F6FF7304E04FF6C07301E056
:100C100040F2FF333A68134103F00103002B04D183
:100C20004FF477710C4804F0B7FBFA7913465B0078
:100C300013441B010C3303F1804303F520430121CE
:100C40003A6801FA02F211461846FFF78CFF00BF1E
:100C50000837BD4680BD00BF6022010080B582B06C
:100C600000AF03463960FB71FB79002B38D0FB796C
:100C7000012B32D0FB79022B2CD0FB79032B26D011
:100C8000FB79042B21D0FB79052B1BD0FB79062B9C
:100C900016D0FB79072B11D0FB79082B0CD0FB79F0
:100CA000092B06D0FB790A2B01D107231AE0002378
:100CB00018E04FF4404315E00F2313E0002311E048
:100CC00000230FE04FF6FF730CE000230AE04FF41F
:100CD0007F4307E040F6FF7304E04FF6C07301E086
:100CE00040F2FF333A68134103F00103002B04D1B3
:100CF00040F20B410C4804F04FFBFA7913465B00BD
:100D000013441B010C3303F1804303F520430121FD
:100D10003A6801FA02F211461846FFF712FF00BFC7
:100D20000837BD4680BD00BF6022010080B582B09B
:100D300000AF786039607B68022B04D94FF4D5711D
:100D4000074804F029FB074A7B6804331B0113445E
:100D500004333A681A6000BF0837BD4680BD00BF43
:100D6000C42201000020044080B582B000AF78604A
:100D7000396039687868FFF7D9FF00BF0837BD468A
:100D800080BD0000B0B588B000AF0023FB61124BFE
:100D90003C1D1D460FCD0FC495E8030084E80300F9
:100DA00001210E4804F028FE0D4BFB603B1D194647
:100DB0000C4807F097FA0B4B0A225A67094B9B6FB6
:100DC00023F01F23074A43F00B239367FB69184660
:100DD0002037BD46B0BD00BF2823010000520400EB
:100DE000E0C810000004014080B584B000AF786016
:100DF00039600023FB6020E03B68012B04D07B6856
:100E000003F00103002B0CD07B681B7819461248B5
:100E100007F05EFB3B68013B3B607B6801337B6016
:100E20000BE07B681B8819460B4807F067FB3B68A3
:100E3000023B3B607B6802337B603B68002BDBD16D
:100E400000BF054B1B6903F02003002BF9D0FB68A2
:100E500018461037BD4680BD0004014080B582B001
:100E600000AF00237B6000F051F97B68184608371B
:100E7000BD4680BD80B584B000AF78600023FB60C4
:100E8000786800F009FAFB6818461037BD4680BD47
:100E900080B582B000AF00237B600121034804F0DD
:100EA000ABFD7B6818460837BD4680BD00350A009B
:100EB00080B586B000AFF860B9603B601346FB7147
:100EC00000237B61FB79002B0BD10423FB7400BF53
:100ED000FB68D8B2FA7C3B68B96806F0F1FF7B6921
:100EE00000E0024B18461837BD4680BD0100138054
:100EF00080B584B000AF786039600023FB607B6808
:100F0000DBB239681846FFF7A9FEFB6818461037B0
:100F1000BD4680BD80B584B000AF786039600023E5
:100F2000FB607B68DBB239681846FFF72FFEFB6871
:100F300018461037BD4680BD80B588B000AFF86058
:100F4000B9607A600023FB614FF43063BB61022318
:100F50007B6101214FF48A4004F04EFD7A69B96942
:100F6000042007F073F80E4B5B6923F007030C4A6B
:100F700043F0040353610A4B9B68094A43F0100392
:100F80009360FB68D8B200230422B96806F098FF8A
:100F9000786800F019F8FB6918462037BD4680BD17
:100FA00000600E4080B582B000AF78600121054836
:100FB00004F022FD0321786805F004FA00BF083729
:100FC000BD4680BD30253E0080B588B000AF78605A
:100FD000214A07F1140307CA03C31A7000233B76A2
:100FE0001E48FFF7DFFF01211D4804F005FD002327
:100FF0003B7500237B750123FB7507F1140318462D
:1010000007F0DAF8174A07F10C0392E803001860BA
:101010000433198002330A0C1A7001237B7307F121
:101020000C031946012007F077F80D4804F050FD35
:1010300002467B68B2FBF3F3013B19460120FFF740
:1010400093FE094B00229A60012007F0A3F800BF2D
:101050002037BD4680BD00BF4023010005002400AD
:10106000A00914004C2301000020044080B483B088
:1010700000AF7860FEE7000080B485B000AF786014
:101080000B4B1B68002B02D1094B0A4A1A60084B14
:101090001B68FB60064B1A687B681344044A1360A4
:1010A000FB6818461437BD465DF8047B704700BFE7
:1010B000F00A002090BE002080B483B000AF034649
:1010C000FB7197F90730002B0CDBFB7903F01F0253
:1010D000074997F907305B09012000FA02F26033F3
:1010E00041F8232000BF0C37BD465DF8047B7047F4
:1010F00000E100E080B400AF034B9B681846BD469A
:101100005DF8047B704700BF0020044080B58AB0C2
:1011100000AF002387F82730002387F8263000230C
:1011200087F82530002387F82430002387F8233000
:10113000534A3B4607CA03C31A700023FB610023CE
:10114000BB61504BD3F8B03003F00403002B06D141
:1011500001214D4804F050FC012387F827304B480B
:1011600005F04CF80346FB75FB7D032B02D00123F1
:1011700087F82530434BD3F8903003F04003002B21
:1011800002D1012387F824300321404805F01AF9E1
:101190003F4804F015FC38613A4BD3F8F03003F0C7
:1011A0000103002B06D10121394804F025FC01235D
:1011B00087F8263005F026FDF860364B1B6803F0F3
:1011C0000103002B15D0334B1B68FB61314B5B6A6D
:1011D000BB61304B00221A602E4B00225A622D4B0D
:1011E00040F2FF721A621E20FFF766FF012387F8A4
:1011F00023300023BB700023FB7008233B713B4668
:10120000184606F0D9FF00F065F8F86805F00AFD09
:1012100097F82330002B0AD039691D4804F0DDFB14
:101220001C4AFB6913601B4ABB69536202E0002041
:1012300006F0B0FF97F82630002B03D000211448A9
:1012400004F0DAFB97F82530002B04D0FB7D19461B
:101250000E4805F0B7F897F82430002B04D0002290
:101260000021012005F05EFA97F82730002B03D00B
:101270000021054804F0C0FB00BF2837BD4680BDF3
:101280005423010000400E4030253E00050024009C
:10129000A00914000020044080B483B000AF78603F
:1012A0007B680B49002B0CD0013B882212020032D4
:1012B00053430A68D80AD20A5043800901D0013842
:1012C000FDD800BF0C37BD465DF8047B704700BFFA
:1012D0001C00002080B584B000AF0823BB60334BF6
:1012E0004FF480521A601AE000F062F8786000BF94
:1012F00000F05EF802467B689342F9D000F058F89F
:1013000078602A4B1B68184600F059F800F050F836
:1013100002467B68D31A7B607B68002B07D1234B86
:101320001B685B00214A1360002BDDD100E000BF89
:101330001E4B1B685B081D4A13601C4B1B68FB603F
:1013400024E01A4B1A68FB681343184A136000F034
:101350002FF8786000BF00F02BF802467B689342BC
:10136000F9D000F025F87860104B1B68184600F0A3
:1013700026F800F01DF802467B68934206D0FB6811
:10138000DA430A4B1B681340084A1360BB685A1EB5
:10139000BA60002B05D0FB685B08FB60FB68002B84
:1013A000CFD100BF1037BD4680BD00BF1C0000205C
:1013B00080B500AFFFF79EFE0346184680BD80B49F
:1013C00083B000AF78607B68013BFDD800BF0C376D
:1013D000BD465DF8047B704780B586B002AF78608B
:1013E0002B4B1B78002B01D000234CE0FFF792F928
:1013F000F860FB68002B01D0FB6844E02549002021
:10140000FFF7B2F9F860FB68002B01D0FB683AE007
:10141000214800F003FAF860FB68002B01D0FB685C
:1014200031E01D4B1B68002B01D10B232BE0194B26
:101430005B689AB2194B1A80164BDB689AB2174B4D
:101440005A80164B00229A80144B0022DA80134BEC
:101450001A88124B1A81114B5A88104B5A810C4B27
:1014600001221A700D4B1B881A460C4B5B8803FB3C
:1014700002F30193002300930023002200210020A7
:1014800000F070F8002318461037BD4680BD00BF3D
:10149000F40A0020F80A0020240B0020280B00206A
:1014A00080B483B000AF7860094B1B7883F00103F0
:1014B000DBB2002B01D0012303E07B68054A1A60F0
:1014C000002318460C37BD465DF8047B704700BF0B
:1014D000F40A0020280B002090B482B000AF04462C
:1014E000084611461A462346FB800346BB800B463E
:1014F0007B8013463B80194B1B7883F00103DBB2E2
:10150000002B01D0012324E0FA887B881344144A7D
:101510001288934206DCBA883B881344104A5288EA
:10152000934201DD042314E07B88002B02D03B882A
:10153000002B01D105230CE0094AFB889380084A5F
:10154000BB88D380064A7B881381054A3B88538138
:10155000002318460837BD4690BC7047F40A0020A7
:10156000280B002090B58DB000AF04460846114608
:101570001A462346FB800346BB800B46FB7013468E
:10158000BB70A14B1B7883F00103DBB2002B01D0B1
:10159000012335E19D4B1B68002B01D101232FE175
:1015A0009B4B5B7C002B01D00A2329E100237B624B
:1015B000974B9B68DB08FB61964BDA88BB8813442A
:1015C000BB80924B1B68BA88F96901FB02F2134495
:1015D000BB610FE18F4B1B891A46FB88D31A1A4651
:1015E0007B6C934228BF1346FB627A6CFB6AD31A6A
:1015F0007B64884B9A88FB881344FB807B6AFA697A
:1016000002FB03F31A46BB691344BB62804B1B7C8D
:101610000033012B00F2CE80BB78002B01D00023D9
:1016200000E0FF2387F82330794B1B7C012B04D18A
:1016300097F82330DB4387F82330FB6A072B4CD81D
:10164000FB88FA6A1344FB6297F82330002B3FD0E3
:101650001BE0FB88DB089BB21A46BB6A13441B786D
:101660005AB2FB8803F00703012101FA03F35BB2CE
:1016700013435AB2FB88DB089BB21946BB6A0B4482
:10168000D2B21A70FB880133FB80FB88FA6A9A4257
:10169000DFD891E0FB88DB089BB21A46BB6A134493
:1016A0001B785AB2FB8803F00703012101FA03F308
:1016B0005BB2DB435BB213405AB2FB88DB089BB2E0
:1016C0001946BB6A0B44D2B21A70FB880133FB8007
:1016D000FB88FA6A9A42DDD86EE0FB8803F00703C4
:1016E0007B61FB88DB089BB21A46BB6A1344BB6272
:1016F0007B69002B25D0BB6A1B78FB7401227B69B8
:1017000002FA03F3DBB2013BBB74FA7CBB7C1340EF
:10171000FB7497F91230DB435AB297F92330134028
:101720005AB297F9133013435BB2FB74BB6AFA7C6D
:101730001A70BB6A0133BB627A69FB6A1344083BC7
:10174000FB62FB6ADB08FB60FB68002B10D097F89C
:101750002330FA681946B86A10F0F9F8FB68DB0024
:101760001A46FB6A9B1AFB62FB68BA6A1344BB62A7
:10177000FB6A002B20D0BB6A1B78FB740122FB6A3A
:1017800002FA03F3DBB2013BBB7497F91230DB437F
:101790005AB297F9133013405BB2FB7497F82320C9
:1017A000BB7C1340DAB2FB7C1343FB74BB6AFA7C4C
:1017B0001A7001E000BF00E000BFBA887B6A1344E2
:1017C0005B11154A52F82320B9887B6A0B4403F059
:1017D0001F03012101FA03F31846B9887B6A0B4401
:1017E0005B1102430C4941F823200023FB807B6AF4
:1017F00001337B627B6C002B7FF4ECAE00BF0023D7
:1018000018463437BD4690BDF40A0020240B002052
:10181000F80A0020280B00208C97002090B583B098
:1018200000AF7860114B9B69002B01D1012318E0B8
:101830000E4B9C690D4B59680C4BDA680C4B0B48EE
:10184000A0470B4B1B68002B01D10B2309E0084B71
:101850001A687B681A601022FF21064810F077F89A
:10186000002318460C37BD4690BD00BFF80A002083
:10187000240B00208C97002090B58BB002AF404B1A
:101880009B68DB08FB603F4B1B687B6101233B616E
:101890000023FB610023BB6143E07B6903F001038C
:1018A000002B03D0BB690133BB6128E0BB69002B6F
:1018B00022D0354B1A68FB68F96901FB03F3134426
:1018C000BB602F4B1C6A2E4B5A68BB690193FB69A6
:1018D000009313460022B9682948A04778607B68C6
:1018E000002B01D07B6847E0BA69FB6913440133E0
:1018F000FB610023BB6102E0FB690133FB61FA6914
:10190000BB69134403F01F03002B03D07B695B0802
:101910007B6106E03B695A1C3A611A4A52F823304F
:101920007B61FA69BB691A44154BDB689A42B4D3F0
:10193000BB69002B1AD0144B1A68FB68F96901FBCC
:1019400003F31344BB600E4B1C6A0D4B5A68BB6912
:101950000193FB69009313460022B9680848A04729
:1019600078607B68002B01D07B6805E010220021A5
:1019700004480FF0ECFF002318462437BD4690BD05
:10198000F80A00208C970020240B002080B485B03A
:1019900000AFF860B9607A603B60FB681B0CDAB29C
:1019A000BB681A70FB681B0ADAB27B681A70FB68A6
:1019B000DAB23B681A7000BF1437BD465DF8047B8D
:1019C0007047000080B588B000AF78607B68002B5E
:1019D00001D1052331E07B6800225A607B686FF0FB
:1019E0007F429A6007F118031846FFF759FDF86126
:1019F000FB69002B01D0FB691FE0BA697B681A60A4
:101A00000023BB600023FB60BB691B88013B3B617B
:101A1000BB695B88013B7B6107F108031946786865
:101A200000F012F8F861FB69002B01D0FB6904E0BB
:101A30000449786800F0DDFEFB6918462037BD4692
:101A400080BD00BF8026010090B587B000AF7860F0
:101A500039607B68002B02D03B68002B01D1052345
:101A60003FE03B681A683B689B689A4205DA3B682E
:101A70005A683B68DB689A4201DB042331E03B682B
:101A80001B68002B13DB3B685B68002B0FDB3B689C
:101A90009A687B681B681B88013B9A4207DC3B689D
:101AA000DA687B681B685B88013B9A4201DD03238F
:101AB00017E03B681B68BB603B685B68FB603B688A
:101AC0009B683B613B68DB687B617B6803F10C04CE
:101AD00007F108030FCB84E80F00786800F055F891
:101AE000034618461C37BD4690BD90B589B002AF7D
:101AF00078607B68002B01D105232AE07B68586859
:101B000007F1090307F10A0207F10B0100F068F879
:101B1000786800F022F878617B69002B01D07B693E
:101B200017E07B681B681B893B617B681B685B89CE
:101B3000FB60F87ABC7A7B7A3A69F96801FB02F2B9
:101B4000019200932346024600210020FFF70AFD80
:101B5000034618461C37BD4690BD80B582B000AF25
:101B600078607B68002B01D105230AE07B681B6845
:101B70001A887B681B685B8800210020FFF7ACFC9B
:101B8000034618460837BD4680BD90B583B000AF08
:101B900078607B68002B01D105231DE07B68DB6842
:101BA00098B27B681B6999B27B685B699AB27B6863
:101BB000DB689BB2D31A9BB201339CB27B689B69F2
:101BC0009AB27B681B699BB2D31A9BB201339BB25A
:101BD0002246FFF781FC034618460C37BD4690BDF0
:101BE00080B584B000AFF860B9607A603B603B6854
:101BF0007A68B968F868FFF7C9FE00BF1037BD46BC
:101C000080BDB0B588B002AFF860B9607A60FB689B
:101C1000002B01D1052327E0FB680C337A68B968F3
:101C2000184600F0D3FB034683F00103DBB2002B20
:101C300001D0012318E0FB68986807F1150307F14C
:101C4000160207F11701FFF7A1FEBB6898B27B6887
:101C500099B2FC7DBD7D7B7D0122019200932B46D4
:101C60002246FFF77FFC034618461837BD46B0BD35
:101C7000B0B588B002AFF860B9607A603B60FB68CD
:101C8000002B01D1052326E0FB680C337A68B96884
:101C9000184600F09BFB034683F00103DBB2002BE8
:101CA00001D0012317E007F1150307F1160207F130
:101CB00017013868FFF76AFEBB6898B27B6899B273
:101CC000FC7DBD7D7B7D0122019200932B46224647
:101CD000FFF748FC034618461837BD46B0BD80B52F
:101CE0008AB000AFF860B9607A603B6000237B6225
:101CF0003B683B623B68C3F10103FB610023BB61AE
:101D0000FB68002B01D105239DE0BA683B6AD11A1C
:101D1000BA683B6A13447A68F86800F098F878610A
:101D20007B69012B01D97B698DE07B69002B7FD119
:101D3000BB690133BB617BE0FB69002B06DA7B6A80
:101D40005B000133FA691344FB610AE03B6A013B23
:101D50003B627A6A3B6AD31A5B000133FA69134427
:101D6000FB61BA687B6AD11A7A683B6AD018BA6894
:101D70007B6A13440246F86800F069F878617B6971
:101D8000012B01D97B695EE07B69002B02D1BB6925
:101D90000133BB61BA683B6AD11A7A687B6AD01892
:101DA000BA683B6A13440246F86800F050F878615C
:101DB0007B69012B01D97B6945E07B69002B02D14E
:101DC000BB690133BB61BA687B6AD11A7A683B6A26
:101DD000D01ABA687B6A13440246F86800F037F8F4
:101DE00078617B69012B01D97B692CE07B69002B31
:101DF00002D1BB690133BB61BA683B6AD11A7A6808
:101E00007B6AD01ABA683B6A13440246F86800F04D
:101E10001EF878617B69012B01D97B6913E07B692E
:101E2000002B02D1BB690133BB617B6A01337B624A
:101E30007A6A3B6A9A42FFF67FAFBB69002B0CBF00
:101E400001230023DBB218462837BD4680BD80B58C
:101E50008AB002AFF860B9607A603B60FB68002B23
:101E600001D1052365E0FB681B697A689A4204DBAF
:101E7000FB689B697A689A4201DD012359E0BA68E0
:101E80003B689A4205DDBB68FB613B68BB60FB6950
:101E90003B60FB685B69BA689A4204DCFB68DB68FC
:101EA0003A689A4201DA012343E0FB68DB68BA68CA
:101EB0009A4202DAFB68DB68BB60FB685B693A68E0
:101EC0009A4202DDFB685B693B603A68BB68D31AE3
:101ED0000133BB61BB6898B27B6899B2BB699AB2A7
:101EE0000123FFF7F9FA78617B69002B01D07B6948
:101EF0001FE0FB68986807F1110307F1120207F170
:101F00001301FFF76DFEF97CB87C7B7CBA69019206
:101F1000009303460A4600210020FFF723FB786167
:101F20007B69002B01D07B6903E0F868FFF72DFE89
:101F3000034618462037BD4680BD80B58AB002AF43
:101F4000F860B9607A603B60FB68002B01D1052323
:101F500065E0FB68DB68BA689A4204DBFB685B6992
:101F6000BA689A4201DD012359E07A683B689A42D7
:101F700005DD7B68FB613B687B60FB693B60FB6860
:101F80009B697A689A4204DCFB681B693A689A424A
:101F900001DA012343E0FB681B697A689A4202DA9E
:101FA000FB681B697B60FB689B693A689A4202DDAB
:101FB000FB689B693B603A687B68D31A0133BB615D
:101FC000BB6898B27B6899B2BB699BB20122FFF7EC
:101FD00083FA78617B69002B01D07B691FE0FB6885
:101FE000986807F1110307F1120207F11301FFF7D7
:101FF000F7FDF97CB87C7B7CBA69019200930346BB
:102000000A4600210020FFF7ADFA78617B69002BBA
:1020100001D07B6903E0F868FFF7B7FD0346184677
:102020002037BD4680BD80B487B000AFF860B9608E
:102030007A600023FB75FB68DB68BA689A4203DAB2
:10204000FB7D43F00103FB75FB685B69BA689A424C
:1020500003DDFB7D43F00203FB75FB689B697A6837
:102060009A4203DDFB7D43F00403FB75FB681B69AB
:102070007A689A4203DAFB7D43F00803FB75FB7D27
:1020800018461C37BD465DF8047B704780B588B0A4
:1020900000AFF860B9607A603B600023BB61002349
:1020A0007B61BB6819687B681B681A46F868FFF794
:1020B000BAFF0346BB773B681968BB6A1B681A46C0
:1020C000F868FFF7B0FF03467B77BA7F7B7F134347
:1020D000DBB2002B01D10123ADE0BA7F7B7F13403F
:1020E000DBB2002B01D00023A5E0BB7F002B02D088
:1020F000BB7FFB7701E07B7FFB77FB7F03F0010376
:10210000002B1AD07B681A68BB6A19687B681B6849
:10211000CB1AF968C868B9680968411A01FB03F16C
:102120003B681868BB681B68C31A91FBF3F3134440
:102130007B61FB68DB68BB615EE0FB7F03F0020351
:10214000002B1AD0FB685B69BB617B681A68BB6AAD
:1021500019687B681B68CB1AF9684869B96809680F
:10216000411A01FB03F13B681868BB681B68C31A7E
:1021700091FBF3F313447B613EE0FB7F03F0040328
:10218000002B1AD0FB689B697B61BB681A683B68AF
:102190001968BB681B68CB1AF9688869796809688F
:1021A000411A01FB03F1BB6A18687B681B68C31AFC
:1021B00091FBF3F31344BB611EE0FB7F03F00803C4
:1021C000002B19D0FB681B697B61BB681A683B68F0
:1021D0001968BB681B68CB1AF968086979680968CF
:1021E000411A01FB03F1BB6A18687B681B68C31ABC
:1021F00091FBF3F31344BB61BB7F002B0DD0BB6895
:10220000BA691A607B687A691A607A69B969F8688C
:10221000FFF709FF0346BB7757E73B68BA691A60C7
:10222000BB6A7A691A607A69B969F868FFF7FBFED8
:1022300003467B7749E718462037BD4680BD80B509
:102240008EB002AFF860B9607A603B60002387F817
:10225000273001233B62FB68002B01D10523B1E04D
:10226000BA683B689A4207D1B9687A68BB6BF8686C
:10227000FFF763FE0346A5E07A68BB6B9A4207D17D
:10228000B9687A683B68F868FFF7E1FD034699E0B2
:102290003B463A1D07F1080107F138000090F86845
:1022A000FFF7F4FE034683F00103DBB2002B01D0FD
:1022B000012387E0BA6B7B689A4203DDBA6B7B68C7
:1022C000D31A02E07A68BB6BD31AFB613A68BB6829
:1022D0009A4203DD3A68BB68D31A02E0BA683B68E9
:1022E000D31ABB61FA69BB699A420EDD012387F8F4
:1022F0002730BB68BB627B68BB60BB6A7B603B68A6
:10230000BB62BB6B3B60BB6ABB633A68BB689A420B
:102310000BDABB68BB623B68BB60BB6A3B607B6837
:10232000BB62BB6B7B60BB6ABB633A68BB68D31A9A
:102330007B61BA6B7B689A4203DDBA6B7B68D31A08
:1023400002E07A68BB6BD31A3B617B695B42DA0FB0
:1023500013445B10BB62BA6B7B689A422DDA4FF074
:10236000FF333B6229E097F82730002B07D07B68CA
:10237000BA681946F868FFF744FCF86206E0BB68E3
:102380007A681946F868FFF73CFCF862FB6A002B94
:1023900001D0FB6A16E0BA6A3B691344BB62BB6AB0
:1023A000002B07DD7A683B6A13447B60BA6A7B695D
:1023B000D31ABB62BB680133BB60BA683B689A4200
:1023C000D1DD002318463037BD4680BD80B485B0CE
:1023D00000AFF860B9607A60FB68002B13D0FB682F
:1023E0001B68BA689A420EDBFB689B68BA689A421F
:1023F00009DCFB685B687A689A4204DBFB68DB688F
:102400007A689A4201DD002300E001231846143760
:10241000BD465DF8047B704780B485B000AF78603E
:102420007B681A687B689B689A4209DD7B681B6839
:10243000FB607B689A687B681A607B68FA689A60C0
:102440007B685A687B68DB689A4209DD7B685B6859
:10245000FB607B68DA687B685A607B68FA68DA60E0
:1024600000BF1437BD465DF8047B704790B58DB052
:1024700002AF786039603B6807F108040FCB84E84D
:102480000F0007F108031846FFF7C6FFBA687B681C
:10249000DB689A4202DA7B68DB68BB603A697B687A
:1024A0005B699A4202DD7B685B693B61FA687B6825
:1024B0001B699A4202DA7B681B69FB607A697B6858
:1024C0009B699A4202DD7B689B697B617B689868A7
:1024D00007F1190307F11A0207F11B01FFF780FB4F
:1024E0003A69BB68D31A01337B627A69FB68D31AF5
:1024F00001333B62BB6898B2FB6899B27B6A9AB2BF
:102500003B6A9BB2FEF7E8FFF861FB69002B01D044
:10251000FB6918E0F87EBC7E7B7E7A6A396A01FB33
:1025200002F2019200932346024600210020FFF7A9
:1025300019F8F861FB69002B01D0FB6903E07868AA
:10254000FFF723FB034618462C37BD4690BD80B5E8
:102550008CB000AFF8607A603B600B46FB720023E2
:102560003B62FB68002B01D10523D7E0FB7A1F2BD0
:1025700002D9FB7A7E2B01D90223CFE0FB6893F8C6
:102580002830022B0ED1FB7A9BB2303BFB85FB7AC5
:102590003A2B01D10A23FB85FB7A202B06D10B2392
:1025A000FB8503E0FB7A9BB2203BFB85FA8DFB6841
:1025B0001B8C013B9A4201DD0223AFE0FB68DB6923
:1025C000FB61FB68DB69BB61FB68DB697B61002346
:1025D000BB8595E0FB6893F82230012B02D0022BDB
:1025E00006D00CE0FB8DFA6913441B78BB620CE04B
:1025F000FB8D5B00BA6913441B88BB6205E0FB8D51
:102600009B007A6913441B68BB620023FB843CE097
:10261000BB6A03F00103002B16D0FA8C7B68D1183B
:10262000BA8D3B6813441A46F868FFF7EAFA386136
:102630003B69012B01D93B6970E03B69002B1ED13E
:102640003B6A01333B621AE097F83830002B16D012
:10265000FA8C7B68D118BA8D3B681A44FB685B68BA
:10266000F868FFF705FB38613B69012B01D93B692D
:1026700054E03B69002B02D13B6A01333B62BB6AE9
:102680005B08BB62FB8C0133FB84FB6893F824304E
:102690009BB2FA8C9A42BBD31DE097F83830002BDE
:1026A00016D0FA8C7B68D118BA8D3B681A44FB6847
:1026B0005B68F868FFF7DCFA38613B69012B01D9E8
:1026C0003B692BE03B69002B02D13B6A01333B6243
:1026D000FB8C0133FB84FA8CFB6893F82430194699
:1026E000FB6893F827300B449A42D6DBFB6893F8DB
:1026F00023309AB2FB8D1344FB85BB8D0133BB8520
:10270000FB6893F825309BB2BA8D9A42FFF462AF12
:102710003B6A002B0CBF01230023DBB21846303785
:10272000BD4680BD80B58CB002AFF860B9607A60FC
:102730003B6000237B62FB68002B02D0BB68002B50
:1027400001D1052351E0FB6893F82830002B01D11B
:1027500002234AE03B68FB613B6BBB6100233B62A9
:1027600039E0BA683B6A13441B780A2B0DD13B68E9
:10277000FB61FB6893F825301A46BB691344FA687D
:1027800092F826201344BB6122E0BA683B6A1344E6
:10279000197897F834300093BB69FA69F868FFF745
:1027A000D6FE78617B69012B01D97B691DE07B69CD
:1027B000002B02D17B6A01337B62FB6893F82430E3
:1027C0001A46FB6893F827301344FA691344FB61F7
:1027D0003B6A01333B623A6A7B689A42C1D37B6AA7
:1027E000002B0CBF01230023DBB218462837BD465F
:1027F00080BD80B582B000AF786039607B68002B07
:1028000001D1052313E03B68002B08D17B681C3302
:102810001022002118460FF09AF8052307E07B6884
:102820001C331022396818460FF086F8002318462A
:102830000837BD4680BD000080B582B000AF1F4B99
:102840007B607B6802221A617B6802225A617B6886
:102850001B4A9A617B681B4ADA617B684FF480628D
:102860001A627B6800229A627B6800225A627B6847
:102870000022DA627B68124A9A647B68124ADA6440
:102880007B6810221A657B6800229A657B680022AB
:102890005A657B680022DA657B6807330B49184666
:1028A0000FF07EF87B680A4918460FF079F87B68CC
:1028B00020229A7100BF0837BD4680BD9C9700203A
:1028C00080280100340B0020340F00208C280100E8
:1028D0009028010080B58AB000AFF860B9607A60D6
:1028E0003C4B1B78002B01D1FFF7A6FFFA6813467B
:1028F0005B001344DB004833364A1344BB61BB68BA
:10290000FB61BB691B693B62BB69DB687B610023C0
:102910007B623A6A7B699A422AD9BB699A683B6AA8
:10292000D31A3B613A697B68934228BF13463B61E7
:10293000BB695A683B6A13443A691946F8690EF054
:10294000FBFF7A6A3B6913447B62FA693B69134473
:10295000FB617A683B69D31A7B603A6A3B6913442E
:102960003B62BB699B683A6A9A4201D100233B6291
:102970007A693B6AD31A3B613A697B68934228BF04
:1029800013463B613B69002B18D0BB695A683B6A10
:1029900013443A691946F8690EF0CEFF7A6A3B692A
:1029A00013447B62FA693B691344FB617A683B69B3
:1029B000D31A7B603A6A3B6913443B627B6A002B03
:1029C00002D0BB693A6A1A617B6A18462837BD464D
:1029D00080BD00BF9C97002080B586B000AFF86036
:1029E000B9607A603B602E4B1B78002B01D1FFF75A
:1029F00023FF2B4B1B691A46FB68934248D204F015
:102A0000E3F83861FB68002B32D02549FB685A1C7B
:102A100013465B001344DB000B44BA681A6020497C
:102A2000FB685A1C13465B001344DB000B44043361
:102A30007A681A601A49FA6813465B001344DB008F
:102A40000B4420333A681A601549FA6813465B0054
:102A50001344DB000B44283300221A601049FA6843
:102A600013465B001344DB000B44243300221A603E
:102A70000B49FA6813465B001344DB000B442C330C
:102A80003A6A1A60386904F0AFF800237B6102E00B
:102A90004FF0FF337B617B6918461837BD4680BD18
:102AA0009C97002080B586B000AFF860B9607A606E
:102AB0003B602E4B1B78002B01D1FFF7BDFE2B4B4B
:102AC0005B691A46FB68934247D204F07DF838618F
:102AD000FB68002B31D02549FA6813465B0013448C
:102AE000DB000B444833BA681A602049FA68134681
:102AF0005B001344DB000B444C337A681A601B49BB
:102B0000FA6813465B001344DB000B4450333A6809
:102B10001A601649FA6813465B001344DB000B4445
:102B2000583300221A601149FA6813465B001344B7
:102B3000DB000B44543300221A600C49FA68134638
:102B40005B001344DB000B445C333A6A1A6038695B
:102B500004F04AF800237B6102E04FF0FF337B6111
:102B60007B6918461837BD4680BD00BF9C97002082
:102B7000F0B400EB4003DFF8800000EBC30000F18D
:102B800018063069F768756887422ED3B368DC1B76
:102B9000631E934212D37D19D01900BF11F8013B77
:102BA00005F8013B013A05D011F8013B05F8013B5E
:102BB000013AF3D1F0600120F0BC7047C018904298
:102BC00017D37819121B11F8013B00F8013B013CA7
:102BD000F9D1141C05D011F8013B05F8013B013A6D
:102BE000F9D1F4600120F0BC7047C01B013890425D
:102BF000D1D20020F0BC70479C97002080B487B0F1
:102C000000AFF860B9607A6000233B6102E03B6985
:102C100001333B61BA683B6913441B78002BF6D142
:102C20003A697B689A4201D97B683B613B69FE2B1C
:102C300006D8FB685A1CFA603A69D2B21A7011E0E1
:102C4000FB685A1CFA60FF221A70FB685A1CFA6073
:102C50003A69D2B21A703B69190AFB685A1CFA60C9
:102C6000CAB21A7000237B610AE0BA68531CBB60C9
:102C7000FB68591CF96012781A707B6901337B611B
:102C80007A693B699A42F0D3FB6818461C37BD4607
:102C90005DF8047B704780B483B000AF78607B68D8
:102CA000043318460C37BD465DF8047B704780B589
:102CB00082B000AFFB1C012219460120FFF70AFE7B
:102CC00003467B607B68002B44DDFB78042B1AD025
:102CD000042B06DC022B10D0022B11DC012B09D0B7
:102CE0002DE0062B15D0062B10DB072B14D0802BE4
:102CF00015D024E000F07CFA31E000F02DFB2EE04E
:102D000000F0F8FC2BE000F0C1FC28E000F046FBEE
:102D100025E000F043FF22E000F022FF1FE0FB1C53
:102D2000012219460120FFF7D5FD03467B607B6831
:102D3000002B11DDFB78184600F096FE0CE0FB78C6
:102D40005BB2002B0ADAFB1C012219460120FFF7B7
:102D5000C1FD03E000BF02E000BF00E000BF00BF14
:102D60000837BD4680BD000080B58CB000AF0123A0
:102D70003B713B1D0133FB61FB69FB62334B5B69BC
:102D8000BB620BE0BB6ADAB2FB6A591CF96262F003
:102D90007F02D2B21A70BB6ADB09BB62BB6A7F2BAF
:102DA000F0D8FB6A5A1CFA62BA6AD2B21A70FB6A8D
:102DB000FB61274B1B68BB61244BDB68BA69D31AE4
:102DC0007B617B691B017B617B691B117B61FB69FB
:102DD0007B627B693B620BE03B6ADAB27B6A591C1F
:102DE000796262F07F02D2B21A703B6ADB093B6201
:102DF0003B6A7F2BF0D87B6A5A1C7A623A6AD2B25D
:102E00001A707B6AFB61FA693B1DD31A1A463B1D97
:102E100019460120FFF7ACFE03463B613B69002BDE
:102E200009D00A4ABB69D360084B1B78013BDAB270
:102E3000064B1A7004E0054B5B690133034A53618A
:102E40003B6918463037BD4680BD00BF4C4F00205F
:102E5000041000E080B58AB000AFF860B9607A6015
:102E6000654B1B78012B10D0634B1B78002B00F0B7
:102E7000A780614B1B78022B09D1FFF775FF5E4BD2
:102E80001B78012B40F09E8001E000BF00E000BFF6
:102E90007B681F2B09D8584BDA697B6822FA03F349
:102EA00003F00103002B40F08F807B68172B07D8BD
:102EB000FB68013BFB607B68DAB2FB681A703DE09F
:102EC000BA68FB68D31AFB61FB697F2B12D9FB69D7
:102ED000DA09FB68013BFB60D2B2FB681A70FB6940
:102EE000DBB2FA68013AFA6063F07F03DAB2FB689A
:102EF0001A7006E0FB68013BFB60FB69DAB2FB6815
:102F00001A707B687F2B12D97B68DA09FB68013B5A
:102F1000FB60D2B2FB681A707B68DBB2FA68013AD8
:102F2000FA6063F07F03DAB2FB681A7006E0FB68B0
:102F3000013BFB607B68DAB2FB681A702F4B1B68A1
:102F4000BB612D4BDB68BA69D31A7B617B691B01BE
:102F50007B617B691B097B61BB687B627B693B6230
:102F60000BE03B6ADAB27B6A591C796262F07F023D
:102F7000D2B21A703B6ADB093B623B6A7F2BF0D806
:102F80007B6A5A1C7A623A6AD2B21A707B6ABB6058
:102F9000BA68FB68D31A1A46F9680120FFF7E8FD02
:102FA00003463B613B69002B03D0134ABB69D360E6
:102FB0000BE0114B1B780133DAB20F4B1A7004E0AF
:102FC00000BF02E000BF00E000BF0D4BDA6E0C4B0B
:102FD0001B6F9A420BD0084B9B78002B07D1064BF6
:102FE00001229A70FFF763FE034B00229A7000BF24
:102FF0002837BD4680BD00BF4C4F0020041000E0C4
:103000009C97002080B586B002AFF860B9607A6006
:103010003B60002300934FF48043144A144901207D
:10302000FFF7DAFC002300930823124A104901201D
:10303000FFF738FD104B4FF080521A610F4B1B68A1
:103040000D4AD3600C4A7B6813620B4AFB685360DD
:10305000094ABB689360084A3B685362064B0022EA
:103060001A7000BF1037BD4680BD00BF440F00205E
:10307000A4280100444F00204C4F0020041000E021
:1030800080B483B000AF7860044A7B68136100BFEE
:103090000C37BD465DF8047B704700BF4C4F0020E5
:1030A00080B584B000AF786003F08EFDF86008480A
:1030B000FFF7F1FDB8607A68B968B868FFF7CAFE33
:1030C000F86803F091FD00BF1037BD4680BD00BF1A
:1030D0007C4F002080B588B000AF7860396003F085
:1030E00073FD78611648FFF7D6FD38613B69FB60D8
:1030F000FB68FB613B68BB610BE0BB69DAB2FB6953
:10310000591CF96162F07F02D2B21A70BB69DB0907
:10311000BB61BB697F2BF0D8FB695A1CFA61BA69A5
:10312000D2B21A70FB69FB607A68F9683869FFF7F8
:1031300091FE786903F058FD00BF2037BD4680BD81
:103140007C4F002080B58CB000AFF860B9607A6029
:1031500003F03AFDF8612548FFF79DFDB861BB69B2
:103160007B617B69FB62BB68BB620BE0BB6ADAB266
:10317000FB6A591CF96262F07F02D2B21A70BB6A14
:10318000DB09BB62BB6A7F2BF0D8FB6A5A1CFA6270
:10319000BA6AD2B21A70FB6A7B617B697B627B6818
:1031A0003B620BE03B6ADAB27B6A591C796262F0DF
:1031B0007F02D2B21A703B6ADB093B623B6A7F2B0B
:1031C000F0D87B6A5A1C7A623A6AD2B21A707B6A69
:1031D0007B61FA687969B869FFF73CFEF86903F02A
:1031E00003FD00BF3037BD4680BD00BF7C4F0020CF
:1031F00080B58CB000AF554B1B78002B40F0A280FF
:10320000524B01221A7003F0DFFCF8600A22504989
:103210000120FFF7ADFCF86803F0E6FC0A20FFF799
:103220003FFF03F0D1FCB8604A48FFF734FD7860F7
:103230007B683B603B68FB62444B5B68BB620BE0B6
:10324000BB6ADAB2FB6A591CF96262F07F02D2B241
:103250001A70BB6ADB09BB62BB6A7F2BF0D8FB6AC2
:103260005A1CFA62BA6AD2B21A70FB6A3B603B68B7
:103270007B62364B9B683B620BE03B6ADAB27B6A4F
:10328000591C796262F07F02D2B21A703B6ADB0984
:103290003B623B6A7F2BF0D87B6A5A1C7A623A6A9F
:1032A000D2B21A707B6A3B603B68FB61274B1B699B
:1032B000BB610BE0BB69DAB2FB69591CF96162F0D2
:1032C0007F02D2B21A70BB69DB09BB61BB697F2B7D
:1032D000F0D8FB695A1CFA61BA69D2B21A70FB695C
:1032E0003B603B687B6102233B610BE03B69DAB2E8
:1032F0007B69591C796162F07F02D2B21A703B6916
:10330000DB093B613B697F2BF0D87B695A1C7A61F2
:103310003A69D2B21A707B693B60182239687868C2
:10332000FFF798FDB86803F05FFC084B5B6A002B61
:1033300002D0064B5B6A984700F0DCF900F0A6F972
:1033400000F02CFC00BF3037BD4680BD4C4F002044
:10335000982801007C4F002080B582B000AF03F0B8
:1033600033FC78600B48FFF796FC38600A4B1B78FB
:10337000002B07D00B2239683868FFF76BFD064B2E
:1033800000221A70786803F02FFC00BF0837BD4692
:1033900080BD00BF7C4F00204C4F002080B58CB01A
:1033A00000AF03F011FCF8604548FFF774FCB8600B
:1033B000BB687B607B68FB62424B5B68BB620BE077
:1033C000BB6ADAB2FB6A591CF96262F07F02D2B2C0
:1033D0001A70BB6ADB09BB62BB6A7F2BF0D8FB6A41
:1033E0005A1CFA62BA6AD2B21A70FB6A7B607B68B6
:1033F0007B62344B9B683B620BE03B6ADAB27B6AD0
:10340000591C796262F07F02D2B21A703B6ADB0902
:103410003B623B6A7F2BF0D87B6A5A1C7A623A6A1D
:10342000D2B21A707B6A7B607B68FB61254B1B699B
:10343000BB610BE0BB69DAB2FB69591CF96162F050
:103440007F02D2B21A70BB69DB09BB61BB697F2BFB
:10345000F0D8FB695A1CFA61BA69D2B21A70FB69DA
:103460007B607B687B6102233B610BE03B69DAB2E6
:103470007B69591C796162F07F02D2B21A703B6994
:10348000DB093B613B697F2BF0D87B695A1C7A6171
:103490003A69D2B21A707B697B6018227968B86881
:1034A000FFF7D8FCF86803F09FFB064B5B6A002B24
:1034B00002D0044B5B6A984700BF3037BD4680BDE1
:1034C0007C4F00204C4F002080B592B000AF786058
:1034D00003F07AFB78616B48FFF7DDFB38613B69ED
:1034E000FB60FB687B647B681A68674B1B69D31AB7
:1034F0009B083B640BE03B6CDAB27B6C591C796433
:1035000062F07F02D2B21A703B6CDB093B643B6C09
:103510007F2BF0D87B6C5A1C7A643A6CD2B21A704A
:103520007B6CFB60FB68FB637B689B68BB630BE0A9
:10353000BB6BDAB2FB6B591CF96362F07F02D2B24B
:103540001A70BB6BDB09BB63BB6B7F2BF0D8FB6BCB
:103550005A1CFA63BA6BD2B21A70FB6BFB607B68C1
:103560005B6820221946F868FFF748FBF8600922DB
:10357000F9683869FFF76EFC3B69FB60FB687B63A9
:103580007B681A68404B1B69D31A9B083B630BE0AE
:103590003B6BDAB27B6B591C796362F07F02D2B26B
:1035A0001A703B6BDB093B633B6B7F2BF0D87B6B6B
:1035B0005A1C7A633A6BD2B21A707B6BFB60FB6861
:1035C000FB627B68DB68BB620BE0BB6ADAB2FB6A5A
:1035D000591CF96262F07F02D2B21A70BB6ADB0931
:1035E000BB62BB6A7F2BF0D8FB6A5A1CFA62BA6ACC
:1035F000D2B21A70FB6AFB60FB687B627B681B6956
:103600003B620BE03B6ADAB27B6A591C796262F07A
:103610007F02D2B21A703B6ADB093B623B6A7F2BA6
:10362000F0D87B6A5A1C7A623A6AD2B21A707B6A04
:10363000FB60FB68FB610023BB610BE0BB69DAB296
:10364000FB69591CF96162F07F02D2B21A70BB6942
:10365000DB09BB61BB697F2BF0D8FB695A1CFA619F
:10366000BA69D2B21A70FB69FB601522F968386931
:10367000FFF7F0FB786903F0B7FA00BF4837BD46A3
:1036800080BD00BF7C4F00204C4F002080B500AFB4
:10369000074B1B6A002B08D0054B1B6A5B68002B8D
:1036A00003D0034B1B6A5B68984700BF80BD00BF17
:1036B0004C4F002080B586B000AF786003F084FAEC
:1036C00078610B48FFF7E7FA38618022796838693A
:1036D000FFF794FAF8600E22F9683869FFF7BAFB31
:1036E000786903F081FA00BF1837BD4680BD00BF7E
:1036F0007C4F002090B583B000AF144B1B6A002BA9
:1037000019D0124B1B6A1B68002B14D00F4B1B6A7D
:103710001B689847C7E900013868D7E900124FF0E5
:1037200000034FF00004130000241A4601460D2048
:10373000FFF708FD05E0064B1B6819460C20FFF754
:10374000C9FC00BF0C37BD4690BD00BF4C4F0020E8
:10375000041000E080B582B000AF03F035FA786065
:103760000748FFF798FA3860112239683868FFF780
:1037700071FB786803F038FA00BF0837BD4680BD9A
:103780007C4F002080B588B000AF786003F01CFA51
:1037900078611A48FFF77FFA38613B69FB60184B84
:1037A0001B697A68D31A9B087B60FB68FB617B68A6
:1037B000BB610BE0BB69DAB2FB69591CF96162F0CD
:1037C0007F02D2B21A70BB69DB09BB61BB697F2B78
:1037D000F0D8FB695A1CFA61BA69D2B21A70FB6957
:1037E000FB600822F9683869FFF734FB786903F059
:1037F000FBF900BF2037BD4680BD00BF7C4F0020D5
:103800004C4F002080B588B000AF786003F0DCF941
:1038100078611A48FFF73FFA38613B69FB60184B43
:103820001B697A68D31A9B087B60FB68FB617B6825
:10383000BB610BE0BB69DAB2FB69591CF96162F04C
:103840007F02D2B21A70BB69DB09BB61BB697F2BF7
:10385000F0D8FB695A1CFA61BA69D2B21A70FB69D6
:10386000FB600422F9683869FFF7F4FA786903F01D
:10387000BBF900BF2037BD4680BD00BF7C4F002094
:103880004C4F002080B588B000AF786003F09CF901
:1038900078611A48FFF7FFF938613B69FB60184B04
:1038A0001B697A68D31A9B087B60FB68FB617B68A5
:1038B000BB610BE0BB69DAB2FB69591CF96162F0CC
:1038C0007F02D2B21A70BB69DB09BB61BB697F2B77
:1038D000F0D8FB695A1CFA61BA69D2B21A70FB6956
:1038E000FB600622F9683869FFF7B4FA786903F0DB
:1038F0007BF900BF2037BD4680BD00BF7C4F002054
:103900004C4F002080B58AB000AF7860396003F07A
:103910005BF978612748FFF7BEF938613B69FB60C6
:10392000254B1B697A68D31A9B087B60FB687B6216
:103930007B683B620BE03B6ADAB27B6A591C7962B6
:1039400062F07F02D2B21A703B6ADB093B623B6ACB
:103950007F2BF0D87B6A5A1C7A623A6AD2B21A700C
:103960007B6AFB60FB68FB613B68BB610BE0BB698A
:10397000DAB2FB69591CF96162F07F02D2B21A70A7
:10398000BB69DB09BB61BB697F2BF0D8FB695A1CA3
:10399000FA61BA69D2B21A70FB69FB600722F96852
:1039A0003869FFF757FA786903F01EF900BF283726
:1039B000BD4680BD7C4F00204C4F002080B588B0B4
:1039C00000AF7860396003F0FFF878611B48FFF7BB
:1039D00062F938613B69FB60FB68FB61184B1B694E
:1039E0007A68D31A9B08BB610BE0BB69DAB2FB694A
:1039F000591CF96162F07F02D2B21A70BB69DB090F
:103A0000BB61BB697F2BF0D8FB695A1CFA61BA69AC
:103A1000D2B21A70FB69FB6080223968F868FFF740
:103A2000EDF8F8601922F9683869FFF713FA786938
:103A300003F0DAF800BF2037BD4680BD7C4F002080
:103A40004C4F002080B483B000AF7860054B1B69F9
:103A50007A68D31A9B0818460C37BD465DF8047B7C
:103A6000704700BF4C4F002080B58CB000AF0346BC
:103A7000FB71394B1B68002B69D0374B1B68FB620D
:103A80000023BB6208E0FB6A1B69FB62FB6A002B38
:103A900007D0BB6A0133BB62FB79BA6A9A42F2D3A0
:103AA00000E000BFFB6A002B51D003F08DF8786175
:103AB0002A48FFF7F0F838613B69FB60FB687B62DE
:103AC000FB793B620BE03B6ADAB27B6A591C796294
:103AD00062F07F02D2B21A703B6ADB093B623B6A3A
:103AE0007F2BF0D87B6A5A1C7A623A6AD2B21A707B
:103AF0007B6AFB60FB68FB61FB6A9B68BB610BE058
:103B0000BB69DAB2FB69591CF96162F07F02D2B27B
:103B10001A70BB69DB09BB61BB697F2BF0D8FB69FD
:103B20005A1CFA61BA69D2B21A70FB69FB60FB6A6F
:103B30001B6880221946F868FFF760F8F8601622C3
:103B4000F9683869FFF786F9786903F04DF800BF26
:103B50003037BD4680BD00BF744F00207C4F002031
:103B600080B582B000AF0C4B1B68002B0FD00A4B06
:103B70001B687B607B68DB68002B02D07B68DB689E
:103B800098477B681B697B607B68002BF2D100BF84
:103B90000837BD4680BD00BF744F002080B586B099
:103BA00000AF03F011F8F8601748FFF774F8B86039
:103BB000BB687B607B687B61144B1B783B610BE0CF
:103BC0003B69DAB27B69591C796162F07F02D2B23B
:103BD0001A703B69DB093B613B697F2BF0D87B693D
:103BE0005A1C7A613A69D2B21A707B697B601B22D7
:103BF0007968B868FFF72EF9F86802F0F5FF00BFA2
:103C00001837BD4680BD00BF7C4F0020784F002094
:103C100080B58AB000AF786002F0D6FF786127489F
:103C2000FFF739F83861802279683869FEF7E6FFD6
:103C3000F860FB687B6201233B620BE03B6ADAB20F
:103C40007B6A591C796262F07F02D2B21A703B6AB9
:103C5000DB093B623B6A7F2BF0D87B6A5A1C7A6295
:103C60003A6AD2B21A707B6AFB60FB68FB61002380
:103C7000BB610BE0BB69DAB2FB69591CF96162F008
:103C80007F02D2B21A70BB69DB09BB61BB697F2BB3
:103C9000F0D8FB695A1CFA61BA69D2B21A70FB6992
:103CA000FB601A22F9683869FFF7D4F8786902F0E6
:103CB0009BFF00BF2837BD4680BD00BF7C4F002062
:103CC00080B500AF0448FFF7F5FC0448FFF7F2FCAD
:103CD00000F07CF900BF80BDAC280100DC280100A9
:103CE00098B500AF094801F0E9F90446074801F02A
:103CF000E5F90146064B074A2046FFF783F94FF0E6
:103D00000050FFF7BDF900BF98BD00BF1498002018
:103D1000C13C000094290100F0B585B002AF00233A
:103D20007B6035E01F497A6813469B0013449B0073
:103D30000B4418681B497A6813469B0013449B0088
:103D40000B4404331C6817497A6813469B001344DC
:103D50009B000B4408331D6812497A6813469B0088
:103D600013449B000B440C331B681E460D497A68B4
:103D700013469B0013449B000B4410331B680093B5
:103D800033462A46214600F0B7F87B6801337B6052
:103D9000054B1B687A689A42C4D300BF0C37BD46F6
:103DA000F0BD00BF60500020E052002090B585B00B
:103DB00000AF01F078F9F860F868FCF733FAC7E96A
:103DC0000001D7E90034184621461437BD4690BD9E
:103DD00080B582B000AF786005F0E8F80346002BAC
:103DE00002D17868FFF74EFD00BF0837BD4680BDA1
:103DF00080B582B000AF786005F0D8F80346002B9C
:103E000002D17868FFF7FEFC00BF0837BD4680BDD1
:103E100080B582B000AF786005F0C8F80346002B8B
:103E200003D104217868FFF76DFD00BF0837BD4658
:103E300080BD000080B586B002AFF860B9607A60DE
:103E40003B6005F0B3F80346002B4BD1274B1B68B2
:103E50001F2B03D92648FFF7DBFE43E0234B1A68EC
:103E6000244913469B0013449B000B44FA681A60D4
:103E70001E4B1A681F4913469B0013449B000B44BA
:103E80000433BA681A60194B1A681A4913469B0022
:103E900013449B000B4408337A681A60134B1A686A
:103EA000144913469B0013449B000B440C333A689F
:103EB0001A600E4B1A680F4913469B0013449B006F
:103EC0000B441033BA691A60084B1B680133074A68
:103ED00013603A68BB69009313467A68B968F8685A
:103EE00000F00AF81037BD4680BD00BFE052002048
:103EF000F02801006050002080B58AB000AFF86063
:103F0000B9607A603B6007F114031422002118465F
:103F10000DF01DFDFB687B61BB68BB617B68FB61CD
:103F20003B683B623B6B7B6207F114031846FFF76B
:103F3000CBFA00BF2837BD4680BD000080B584B0F5
:103F400000AFF860B9607A607968B868FFF736FD4D
:103F5000B868FFF777FD03461946F868FFF7BAF827
:103F6000174B1B68FF2B03D91648FFF751FE24E0BF
:103F7000134B1A68144913465B0013449B000B440F
:103F8000BA681A600E4B1A680F4913465B00134457
:103F90009B000B4404337A681A60094B1A680A497B
:103FA00013465B0013449B000B44083300221A6045
:103FB000034B1B680133024A13601037BD4680BDB6
:103FC000E45E002040290100E452002080B582B068
:103FD00000AF00237B602BE01A497A6813465B0030
:103FE00013449B000B4408331B68002B1DD115495B
:103FF0007A6813465B0013449B000B441868114910
:104000007A6813465B0013449B000B4404331B681F
:104010001946FFF7D3FC0B497A6813465B0013443B
:104020009B000B44083301221A607B6801337B60DC
:10403000054B1B687A689A42CED300BF0837BD464D
:1040400080BD00BFE4520020E45E002080B483B055
:1040500000AF78607B6800221A6000BF0C37BD4655
:104060005DF8047B7047000080B582B000AF7860D7
:10407000144B01221A707B68002B01D101F010F85B
:104080007B6800221A70104B1A687B685A600F4BCD
:104090001A687B689A607B680D4ADA607B68B72291
:1040A0001A617B680B4A5A6100F0F6F900F0ECF9EE
:1040B000786800F04BFF7B681B78002B0837BD4603
:1040C00080BD00BFE85E00207C500100C8520100A6
:1040D0009C290100182A010080B400AF034B1B6823
:1040E0001846BD465DF8047B704700BFEC5E0020BB
:1040F00080B485B000AF03460A46FB711346BB711E
:104100000023FB73FB79162B63D801A252F823F02E
:104110006D410000734100007941000079410000C9
:10412000794100007F410000854100008541000089
:10413000854100008B410000914100009741000043
:104140009D410000A3410000A3410000A3410000E5
:10415000B5410000BB410000C1410000C741000063
:10416000A9410000AF410000CD4100000123FB73D5
:1041700030E00123FB732DE00123FB732AE00123D0
:10418000FB7327E00123FB7324E00123FB7321E091
:104190000123FB731EE00123FB731BE00123FB7370
:1041A00018E00123FB7315E00123FB7312E00123E8
:1041B000FB730FE00123FB730CE00123FB7309E0A9
:1041C0000123FB7306E00123FB7303E00123FB7370
:1041D00000E000BFFB7B18461437BD465DF8047B4A
:1041E000704700BF80B58EB000AFF860B9607A60EC
:1041F0000023FB627B68002B01D100F051FF274BAD
:104200001B68002B08D1786800F04AF87B681B789F
:10421000002B01D0FB6A3DE0204B1B6879681846F3
:1042200000F042FA38637B681B78002B01D0FB6AF0
:1042300030E03B6B7A68F968184605F0D7FE7B687A
:104240001B78002B17D1BB68002B09D0BB681B78EB
:1042500003F00103002B03D0012387F8373002E07D
:10426000002387F837303B6B97F8372083F83420EA
:104270003B6BFB620DE0094B1B68184607F114030A
:104280001A46396B00F006FB3B7D002B01D000F095
:1042900007FFFB6A18463837BD4680BDF05E002038
:1042A00080B588B004AF78607B68002B01D100F046
:1042B000F7FE7B6800221A705E4B1A687B685A60B2
:1042C0005D4B1A687B689A607B685C4ADA607B6841
:1042D0004FF40D621A617B68594A5A61786804F09C
:1042E0008FFC7B681B78002B03D0786804F012FDEC
:1042F0009DE0544B1B68002B40F09580FFF7ECFECF
:10430000F8607B68B422F9684F4800F053F9024620
:104310004C4B1A607B681B78002B03D0786804F044
:10432000F9FC84E0474B1B6819467B6803934FF008
:10433000FF33029300230193042300933823FA6888
:10434000424800F05FF97B681B78002B03D0786847
:1043500004F0E0FC6BE03B4B1B6803F124017B683D
:1043600003934FF0FF330293002301930423009340
:104370002C23FA68364800F045F97B681B78002B3F
:1043800003D0786804F0C6FC51E02E4B1B6803F1A3
:104390006C017B6803934FF0FF330293002301937A
:1043A000042300933823FA682A4800F02BF97B682D
:1043B0001B78002B03D0786804F0ACFC37E0214B6D
:1043C0001B6803F190017B6803934FF0FF33029366
:1043D00000230193042300930123FA681E4800F090
:1043E00011F97B681B78002B03D0786804F092FCED
:1043F0001DE0144B1B6803F148017B6803934FF0E9
:10440000FF33029300230193042300932423FA68CB
:10441000124800F0F7F87B681B78002B03D078680F
:1044200004F078FC03E0786804F074FC00BF1037F7
:10443000BD4680BD7C500100C8520100242A010005
:104440002C2B0100F05E0020C42A0100D82A0100B4
:10445000E82A0100F82A0100082B01001C2B0100AA
:1044600080B584B000AF786002F0CCFBF860054AFC
:104470007B681360F86802F0D5FB00BF1037BD46BB
:1044800080BD00BFF45E002080B500AF0120FFF7C3
:10449000E7FF00BF80BD000080B586B000AF3B469F
:1044A0001946064800F00CF83B78002B01D000F0CC
:1044B000F7FD00BF1837BD4680BD00BF20000020BB
:1044C00080B584B000AF786039603B68002B01D1C3
:1044D00000F0E6FD7B68002B15D13B680A221A70BC
:1044E0002F4B9A6A3B685A602E4B9A6A3B689A60D7
:1044F0003B682D4ADA603B6840F2B9221A613B689A
:104500002A4A5A61FEE702F07DFBB860284B1B681F
:10451000FB601FE0FA687B689A4218D1B86802F025
:1045200081FB3B6815221A701D4B5A6D3B685A601F
:104530001C4B5A6D3B689A603B681B4ADA603B68CB
:104540004FF430721A613B68184A5A6124E0FB68E4
:10455000DB68FB60FB68002BDCD1154B1A687B68BD
:10456000DA60134A7B681360B86802F05BFB3B6853
:1045700000221A700A4B1A683B685A60094B1A6885
:104580003B689A603B68084ADA603B6840F2CB229D
:104590001A613B68054A5A611037BD4680BD00BFAD
:1045A0007C500100C8520100382B0100B02B0100E3
:1045B0002C98002080B58AB004AFF860B9607A60AA
:1045C0003B60BB687B613B68002B01D100F068FD5C
:1045D0007B69002B01D10A4B7B613B68029300236E
:1045E00001930123009304237A687969F86800F045
:1045F000F1F938613B6918461837BD4680BD00BFE8
:104600002000002080B58AB004AFF860B9607A60FD
:104610003B607B687B61FB6A002B01D100F040FDB1
:10462000BB68002B15D1FB6A0A221A70194B9A6AD3
:10463000FB6A5A60184B9A6AFB6A9A60FB6A174ACF
:10464000DA60FB6A40F214421A61FB6A144A5A614A
:10465000FEE77B69002B01D1124B7B61BB68002216
:104660001A70BB680022DA61BB6800221A62FB6A1A
:104670000393BB6A02937B6A01933B6A00933B6896
:104680007A69B968F86800F0B9FA00BF1837BD4612
:1046900080BD00BF7C500100C8520100382B0100D2
:1046A000BC2B01002000002090B58BB004AF7860D7
:1046B00039603B68002B01D100F0F2FC7B68002BD5
:1046C00015D13B680A221A706E4B9A6A3B685A6091
:1046D0006D4B9A6A3B689A603B686C4ADA603B684B
:1046E00040F2D7421A613B68694A5A61FEE702F01C
:1046F00089FA78617B685B69B3F1FF3F1FD07B6803
:104700009A697B685B699A4219D3786902F08AFAE0
:104710003B6818221A705B4B1A6E3B685A605A4B02
:104720001A6E3B689A603B68584ADA603B6840F210
:10473000E2421A613B68564A5A6100239DE07B6859
:104740009B695A1C7B689A617B681B69002B2DD082
:104750007B681B69FB607B681B7803F00203002BFE
:1047600002D1FB681B6805E07B689B68043BFA6824
:1047700013441B687A681361786902F053FA3B6846
:1047800000221A703F4B1A683B685A603E4B1A6809
:104790003B689A603B683D4ADA603B6840F2F14210
:1047A0001A613B683A4A5A61FB6866E0786902F030
:1047B00039FA00233B617B6859687B6898687B689D
:1047C000DC687B681B7803F00103002B03D07B6857
:1047D0005B681B6900E001233A68029200220192A3
:1047E000009323460246386900F0F4F8F8603B680D
:1047F0001B78002B0CD002F005FA78617B689B696E
:104800005A1E7B689A61786902F00CFA002334E042
:104810007B68DB69002B2FD07B68DC697B6859687B
:104820007B681B6AFA687868A0470346FB72FB7ACC
:10483000012B21D002F0E6F978617B689B695A1E52
:104840007B689A61786902F0EDF93B681A221A7068
:104850000C4B9A6E3B685A600B4B9A6E3B689A60A1
:104860003B680A4ADA603B6840F21B521A613B68B7
:10487000074A5A61002300E0FB6818461C37BD4612
:1048800090BD00BF7C500100C8520100382B0100D0
:10489000D02B010080B586B000AFF860B9607A60B7
:1048A0007B68002B01D100F0FBFBFB68002B15D1CE
:1048B0007B680A221A70434B9A6A7B685A60424BA3
:1048C0009A6A7B689A607B68404ADA607B6840F24B
:1048D0003D521A617B683E4A5A61FEE7BB68002B75
:1048E00015D17B680A221A70364B9A6A7B685A6027
:1048F000354B9A6A7B689A607B68344ADA607B68D9
:1049000040F23E521A617B68314A5A61FEE702F07A
:1049100079F97861FB689B69002B18D1786902F0FE
:1049200081F97B6817221A70264BDA6D7B685A6012
:10493000254BDA6D7B689A607B68244ADA607B6875
:1049400040F247521A617B68214A5A6137E0FB689E
:104950009B695A1EFB689A61786902F063F9FB68EB
:104960001B7803F00203002B05D0FB689B68043B17
:10497000BA68134400E0BB683B6102F043F9786118
:10498000FB681A693B691A60FB68BA681A61786942
:1049900002F048F97B6800221A700A4B1A687B689B
:1049A0005A60094B1A687B689A607B68074ADA602C
:1049B0007B6840F257521A617B68054A5A61183782
:1049C000BD4680BD7C500100C8520100382B01005B
:1049D000E42B010080B588B002AFF860B9607A605E
:1049E0003B607B68002B15D1BB6A08221A70374BDD
:1049F0001A6ABB6A5A60364B1A6ABB6A9A60BB6A0B
:104A0000344ADA60BB6A4FF4D9621A61BB6A324A2F
:104A10005A61FEE73B68002B05D03B685A1E3B6895
:104A20001340002B02D03B68002B01D1012300E092
:104A30000023002B15D1BB6A08221A70234B1A6A77
:104A4000BB6A5A60224B1A6ABB6A9A60BB6A214AE7
:104A5000DA60BB6A40F2CC621A61BB6A1E4A5A61D4
:104A6000FEE702F0CFF87861BB6A01937B6A00939E
:104A70003B6A3A687968B86800F030F83861BB6A18
:104A80001B78002B19D0786902F0CCF8BB6A16228B
:104A90001A700E4B9A6DBB6A5A600D4B9A6DBB6AC9
:104AA0009A60BB6A0B4ADA60BB6A40F2D7621A614D
:104AB000BB6A094A5A61002303E0786902F0B2F840
:104AC0003B6918461837BD4680BD00BF7C500100C9
:104AD000C8520100382B0100F82B010080B48BB0C4
:104AE00000AFF860B9607A603B607B68002B01D052
:104AF0007B6800E004233A68934238BF13467B6228
:104B0000FB689B681A467B6A5B421A40FB689B689D
:104B100019467B6A013B0B40002B01D07B6A00E009
:104B2000002313443B623A6ABB681A443B685B4209
:104B30001A40396ABB6819443B68013B0B40002BA3
:104B400001D03B6800E000231344FB61FB685B6815
:104B50001A46FB689B68D31A0133BB61FB689B68EC
:104B60001A46FB699B1A7B61BA697B699A421ED21D
:104B70003B6B002B04D07A69BB69D21A3B6B1A607D
:104B80007B6B16221A70194B9A6D7B6B5A60184B0F
:104B90009A6D7B6B9A607B6B164ADA607B6B40F296
:104BA00022721A617B6B144A5A61002318E0FA6979
:104BB000FB689A607B6B00221A700C4B1A687B6B47
:104BC0005A600B4B1A687B6B9A607B6B094ADA6000
:104BD0007B6B4FF4E5621A617B6B074A5A613B6A53
:104BE00018462C37BD465DF8047B70477C500100A9
:104BF000C8520100382B0100102C010090B593B071
:104C000004AFF860B9607A603B603B68002B15D157
:104C10007B6D08221A70924B1A6A7B6D5A60914B19
:104C20001A6A7B6D9A607B6D8F4ADA607B6D40F209
:104C300093721A617B6D8D4A5A61FEE73B6DB3F149
:104C4000FF3F03D0FA6C3B6D9A4201D8012300E08C
:104C50000023002B15D17B6D08221A70804B1A6A35
:104C60007B6D5A607F4B1A6A7B6D9A607B6D7E4AC2
:104C7000DA607B6D40F297721A617B6D7B4A5A61F4
:104C8000FEE7BB6C002B08D0BB6C5A1EBB6C1340FC
:104C9000002B02D1BB6C032B02D8BB6C002B01D1C3
:104CA000012300E00023002B15D17B6D08221A7030
:104CB0006B4B1A6A7B6D5A606A4B1A6A7B6D9A60FD
:104CC0007B6D694ADA607B6D40F29C721A617B6D84
:104CD000664A5A61FEE7BB6C002B01D0BB6C00E05A
:104CE0000423FB61BB681B7803F00203002B10D088
:104CF0003B6823F003033A6802F00302002A01D163
:104D0000002200E0042213443B633B6B04333B630B
:104D100004E03B68042B38BF04233B63FB6C002B8F
:104D200000F0DF80BB681B7803F00103002B02D189
:104D3000FB69BB6206E07B681B69FA69934238BF76
:104D40001346BB62BB6A5A423B6B1A40BB6A591E90
:104D50003B6B0B40002B01D0BB6A00E000231344E7
:104D6000BB61BB69FA6C02FB03F37B623A6BBB6904
:104D7000D31A7A6A13447B62BB681B7803F0010381
:104D8000002B11D07B681B695A427B6A1A407B68F2
:104D90001B69591E7B6A0B40002B02D07B681B6984
:104DA00000E0002313447B627B6D02930023019398
:104DB00001230093BB6A7A6A7968F868FFF70AFEF4
:104DC00078637B6D1B78002B40F0B380BB687A6BF7
:104DD0001A61BB681B7803F00203002B02D17B6BC6
:104DE0003B620EE03B6823F003033A6802F00302E3
:104DF000002A01D1002200E0042213447A6B1344FC
:104E00003B620123FB623EE03B6A796BBA690A446C
:104E10001A60BB68DB69002B2AD0BB68DC69BB6801
:104E20001B6A7A6B7968B868A0470346BB75BB7D7F
:104E3000012B1DD07B6D1A221A70094B9A6E7B6D67
:104E40005A60084B9A6E7B6D9A607B6D064ADA60F9
:104E50007B6D40F2D9721A617B6D044A5A6169E038
:104E60007C500100C8520100382B0100282C0100A1
:104E70003A6ABB6913443B627A6BBB6913447B6338
:104E8000FB6A0133FB62FA6AFB6C9A42BCD33B6A51
:104E900000221A60BB68DB69002B25D0BB68DC6987
:104EA000BB681B6A7A6B7968B868A0470346FB75D4
:104EB000FB7D012B18D07B6D1A221A701F4B9A6E46
:104EC0007B6D5A601E4B9A6E7B6D9A607B6D1D4A9E
:104ED000DA607B6D40F2E9721A617B6D1A4A5A61A1
:104EE00028E0BB6800221A61BB687A685A60BB6818
:104EF0003A6B9A60BB68FA69DA60BB683A6D5A61CE
:104F0000BB6800229A617B6D00221A700B4B1A68F5
:104F10007B6D5A600A4B1A687B6D9A607B6D094AFB
:104F2000DA607B6D40F2FC721A617B6D064A5A6151
:104F300000E000BF3C37BD4690BD00BF7C50010083
:104F4000C8520100382B0100282C010090B589B00F
:104F500004AF78607B68002B01D100F0A1F87B687A
:104F600000221A70424B1A687B685A60414B1A68DB
:104F70007B689A607B68404ADA607B68C4221A6169
:104F80007B683E4A5A613E4B5B68002B6DD0002126
:104F90000220FFF7ADF80346FB7300210320FFF763
:104FA000A7F803461A46FB7B1340FB73002104203D
:104FB000FFF79EF803461A46FB7B1340FB73FB7B0F
:104FC000012B14D07B6806221A70294B9A697B68E2
:104FD0005A60284B9A697B689A607B68264ADA6037
:104FE0007B68CA221A617B68244A5A61FEE7FFF790
:104FF00073F8B8607B682C22B9682248FFF7DAFAA8
:105000000246214B1A607B681B78002B28D11E4B6F
:105010001B68181D1A4B1B68194A5268796803915E
:1050200002920193042300930823BA6801461748AB
:10503000FFF7E8FA7B681B78002B13D1124B1C6832
:105040007A6800211248FFF7CDF8A0627B681B78D0
:10505000002B09D10C4B1B681846FEF7F7FF04E044
:1050600000BF02E000BF00E000BF1437BD4690BDA6
:105070007C500100C8520100442C01001C2D01008D
:1050800034000020CC2C0100F85E0020E02C010050
:10509000F82C010080B500AF00F064F800BF80BDBF
:1050A00080B400AFFEE780B582B000AFFBF7AAF88E
:1050B00078607B6818460837BD4680BD80B584B0EF
:1050C00000AF78607B68002B01D1FFF7E9FF184B38
:1050D0001B68FB60FB68002B01D0002200E0092266
:1050E0007B681A70FB68002B01D0002300E00923C5
:1050F000104A52F823207B685A60FB68002B01D0CD
:10510000002300E009230C4A52F823207B689A60B0
:105110007B680A4ADA607B684FF4F9721A617B682F
:10512000074A5A61FB6818461037BD4680BD00BF6C
:1051300030B800207C500100C85201001455010015
:105140008855010080B483B000AF7860044A7B6862
:10515000136000BF0C37BD465DF8047B704700BF8D
:1051600030B8002080B500AF034B00221A60FBF777
:1051700027F800BF80BD00BF30B8002080B487B0E2
:1051800000AFF860B9607A60FB6803F10473DA007D
:10519000BB6813449B007B617B697A681A6000BF1F
:1051A0001C37BD465DF8047B704780B485B000AF06
:1051B000786039607B6803F1C063FB60FB683A6824
:1051C0001A6000BF1437BD465DF8047B704780B499
:1051D00085B000AF786039607B6803F18063FB6065
:1051E000FB683A681A6000BF1437BD465DF8047B5F
:1051F000704780B584B000AFF860B9607A60B96874
:10520000F868FFF7E4FF7968F868FFF7CEFF00BFA2
:105210001037BD4680BD000080B582B000AF786019
:1052200039607B68B3F1804F07D07B68274A93428F
:1052300003D0A821264800F0AFF83B681B693F2B3C
:1052400003D9BC21224800F0A7F83B68DB683F2B5C
:1052500003D9BD211E4800F09FF83B685B683F2BD7
:1052600003D9BF211A4800F097F83B681B78DB0789
:105270001A463B685B681B06134343F400427B6895
:105280001A603B68DB681B043A68127A1A437B6831
:105290009A623B681B691B043A68527A1A437B681E
:1052A000DA623B689B7A1B0743F0806343F47D43DB
:1052B0007A68536078683B681B7D1A460021FFF7C7
:1052C0005DFF00BF0837BD4680BD00BF0004004041
:1052D0009C55010080B582B000AF78600B46FB7032
:1052E0007B68B3F1804F07D07B68094A934203D0B3
:1052F000FB21084800F050F87B680433FA78FF215E
:105300001846FFF776FF00BF0837BD4680BD00BFD7
:10531000000400409C55010080B582B000AF786069
:105320007B68B3F1804F08D07B68094A934204D070
:1053300040F22111074800F02FF87B681B6823F02A
:1053400001027B681A6000BF0837BD4680BD00BF00
:10535000000400409C55010080B582B000AF786029
:105360007B68B3F1804F08D07B68094A934204D030
:105370004FF49A71074800F00FF87B681B6843F000
:1053800001027B681A6000BF0837BD4680BD00BFC0
:10539000000400409C55010080B483B000AF7860E9
:1053A0003960FEE780B487B000AFF860B9607A601A
:1053B000FB6803F10473DA00BB6813449B007B6154
:1053C0007B697A681A6000BF1C37BD465DF8047BB4
:1053D000704780B485B000AF786039607B6803F1B6
:1053E0000473DA003B6813449B00FB60FB681B6896
:1053F00018461437BD465DF8047B704780B582B00F
:1054000000AF78607B681F2B04D94FF49671054874
:10541000FFF7C2FF01227B6802FA03F31846083740
:10542000BD4680BDB055010080B584B000AF786046
:105430007B68002B03D07B68B3F5004F04D940F69E
:10544000C2210748FFF7A8FF7B68B3FA83F3DBB2FA
:10545000C3F11F03FB60FB6818461037BD4680BDD3
:105460001856010080B584B000AF78607B68B3F552
:10547000004F04D340F6AF310E48FFF78DFF7B6835
:105480000133B3FA83F3DBB2C3F11F03FB60F868A7
:10549000FFF7B4FF0346013B7A689A4204D040F616
:1054A000B5310448FFF778FFFB6818461037BD4652
:1054B00080BD00BF1856010080B400AF064B1B68CA
:1054C00003F04003002B01D1012300E00023184624
:1054D000BD465DF8047B70473C300E4080B500AFA0
:1054E000FFF7EAFF034683F00103DBB2002B08D18C
:1054F00000BF12210448FFF76CFF0346002BF8D1D0
:1055000000E000BF80BD00BF04300E4080B500AF9A
:10551000FFF7E4FF034B5B681B0C03F00303DBB2F4
:10552000184680BD00300E4080B584B000AF786072
:105530000123FB607B68124A934204D80023FB607E
:105540000023BB6008E07B680E4A934202D8012327
:10555000BB6001E00223BB60FA6810210A48FFF734
:1055600021FF094BD3F8003123F08072BB681B0682
:1055700005491343C1F8003100BF1037BD4680BD57
:105580000048E8010090D00300400E4080B483B092
:1055900000AF054B1B687B607B6818460C37BD4627
:1055A0005DF8047B704700BF3C00002080B582B0EE
:1055B00000AFFAF729FF7860064BD3F800311B0AD9
:1055C00003F01F0301337A6802FB03F31846083720
:1055D000BD4680BD00400E4080B582B000AF0F4890
:1055E00000F00CFE0346FB70FB78072B05D0092B5F
:1055F00007D1FAF709FF78600BE0FFF7C7FF786083
:1056000007E000237B6040F65C510548FFF7C4FECD
:1056100000BF7B6818460837BD4680BD06000E00F7
:105620007C56010080B584B000AF78607B68002BA9
:105630001CD1204800F0E2FD0346FB7200BFFB7A5C
:10564000013B072B28D801A252F823F07B5600001B
:10565000995600009956000089560000995600009E
:1056600099560000815600009156000040F67C518A
:105670001148FFF791FE002317E00023FB6013E0C1
:10568000FFF784FFF8600FE0FAF702FFF8600BE025
:10569000FFF78CFFF86007E00023FB6040F69351B2
:1056A0000548FFF779FE00BFFB6818461037BD4676
:1056B00080BD00BFB80032007C56010080B584B0C8
:1056C00000AF78603960204B5B6803F04073FB608B
:1056D0000023BB6012E01D4ABB68DB0013441A794B
:1056E0003B68DBB29A4206D1184ABB6852F83330A5
:1056F0007A689A4206D9BB680133BB60BB68042B49
:10570000E9D900E000BFBB68052B07D10323FB608C
:1057100040F69A610E48FFF73FFE05E00B4ABB6872
:10572000DB0013445B79FB60FB681B06FB60064BE8
:105730005B6823F040720449FB6813434B6000BF71
:105740001037BD4680BD00BF00000E40E05601008E
:105750007C56010080B582B000AF0E4B1B6C002B55
:1057600014BF01230023FB710A4B41F671321A6406
:10577000FAF740FE034600211846FFF79FFFFB792A
:10578000002B02D0034B00221A6400BF0837BD462D
:1057900080BD00BF00000E4080B584B000AF7860CF
:1057A00039600C4B1B6C002B14BF01230023FB73CF
:1057B000084B41F671321A6439687868FFF77EFF4A
:1057C000FB7B002B02D0034B00221A6400BF103772
:1057D000BD4680BD00000E4080B487B000AF786049
:1057E0000F237B617B6803333B617B69FB60FA6855
:1057F0003B69934228BF1346BB60BB681B07BB6075
:10580000BB6818461C37BD465DF8047B7047000036
:1058100080B400AF044B5B6A1B0903F00303184616
:10582000BD465DF8047B704700400E4080B483B0F5
:1058300000AF7860074B5B6A23F030027B681B0186
:10584000044913434B6200BF0C37BD465DF8047B2F
:10585000704700BF00400E4090B585B000AF786043
:105860000023BB607B683C4A93420BD03B4A934287
:1058700008D03B4A934205D040F69A713948FFF769
:105880008BFD00E000BF786800F0B8FC0346FB60C9
:105890007B68314A93420CD0304A934210D0304A50
:1058A000934214D1304BD3F8803003F00703FB60F0
:1058B00013E02D4BD3F8843003F00703FB600CE0BA
:1058C000294BD3F8883003F00703FB6005E040F66E
:1058D000C9712448FFF760FD00BFFB68042B2ED878
:1058E00001A252F823F000BF39590000FD58000012
:1058F00005590000155900000D590000FAF7EAFD9E
:10590000B86024E0FAF7F8FDB86020E0FAF7EBFDA4
:10591000B8601CE0FAF778FD0446134BD3F8003169
:105920001B0E03F0010301331846FFF767FD034622
:10593000B4FBF3F3BB600AE00023BB6007E0002385
:10594000BB6041F21B010748FFF726FD00BFBB68A3
:1059500018461437BD4690BD030020000500240002
:1059600002001E007C56010000400E4080B483B04F
:1059700000AF78600A4BD3F8443103F00103002BE9
:1059800008D100BF064BD3F840217B681340002BA1
:10599000F8D100E000BF0C37BD465DF8047B7047CE
:1059A00000400E4080B400AF00BFBD465DF8047BF0
:1059B000704780B400AF00BFBD465DF8047B704700
:1059C00080B582B000AF7860786800F0A1F9034636
:1059D000013318460837BD4680BD80B582B000AFA0
:1059E000786039603B68013B1946786800F070FACE
:1059F00000BF0837BD4680BD80B586B000AF786077
:105A00000B46FB7000233B617B681B0A03F00F030E
:105A1000013B092B32D801A252F823F0455A00006D
:105A2000515A00007D5A00007D5A00004B5A000078
:105A3000575A0000615A00007D5A00006B5A00005E
:105A4000775A00001A4B7B611EE01A4B7B611BE00A
:105A5000194B7B6118E0194B7B6101233B6113E01B
:105A6000174B7B6110233B610EE0164B7B614FF4BB
:105A700080333B6108E0144B7B6105E041F2394122
:105A80001248FFF789FC10E07B681B0B03F01F0333
:105A9000FB603B69002B02D03869FFF767FFFB789A
:105AA0001A46F9687869FFF77DFC1837BD4680BD56
:105AB00000400E40B0400E40C0400E40E0400E405E
:105AC000E8400E40F0400E4050410E407C56010030
:105AD00090B585B000AF78607B6803F47813B3F5B8
